{
  "_format": "hh-sol-artifact-1",
  "contractName": "RockPaperScissorsV2",
  "sourceName": "contracts/RockPaperScissorsV2.sol",
  "abi": [
    {
      "inputs": [],
      "name": "InvalidInitialization",
      "type": "error"
    },
    {
      "inputs": [],
      "name": "NotInitializing",
      "type": "error"
    },
    {
      "inputs": [],
      "name": "ReentrancyGuardReentrantCall",
      "type": "error"
    },
    {
      "anonymous": false,
      "inputs": [
        {
          "indexed": false,
          "internalType": "uint256",
          "name": "gameID",
          "type": "uint256"
        },
        {
          "indexed": false,
          "internalType": "address",
          "name": "creator",
          "type": "address"
        },
        {
          "indexed": false,
          "internalType": "uint256",
          "name": "bet",
          "type": "uint256"
        },
        {
          "indexed": false,
          "internalType": "uint256",
          "name": "createTime",
          "type": "uint256"
        },
        {
          "indexed": false,
          "internalType": "uint256",
          "name": "expiration",
          "type": "uint256"
        }
      ],
      "name": "GameCreated",
      "type": "event"
    },
    {
      "anonymous": false,
      "inputs": [
        {
          "indexed": false,
          "internalType": "uint256",
          "name": "gameId",
          "type": "uint256"
        },
        {
          "indexed": false,
          "internalType": "address",
          "name": "player",
          "type": "address"
        },
        {
          "indexed": false,
          "internalType": "uint256",
          "name": "joinTime",
          "type": "uint256"
        },
        {
          "indexed": false,
          "internalType": "uint256",
          "name": "expiration",
          "type": "uint256"
        }
      ],
      "name": "GameJoined",
      "type": "event"
    },
    {
      "anonymous": false,
      "inputs": [
        {
          "indexed": false,
          "internalType": "uint256",
          "name": "gameId",
          "type": "uint256"
        },
        {
          "indexed": false,
          "internalType": "address",
          "name": "player",
          "type": "address"
        },
        {
          "indexed": false,
          "internalType": "uint256",
          "name": "revealTime",
          "type": "uint256"
        }
      ],
      "name": "GameRevealed",
      "type": "event"
    },
    {
      "anonymous": false,
      "inputs": [
        {
          "indexed": false,
          "internalType": "uint64",
          "name": "version",
          "type": "uint64"
        }
      ],
      "name": "Initialized",
      "type": "event"
    },
    {
      "inputs": [
        {
          "internalType": "uint256",
          "name": "gameId",
          "type": "uint256"
        }
      ],
      "name": "cancelGame",
      "outputs": [],
      "stateMutability": "nonpayable",
      "type": "function"
    },
    {
      "inputs": [
        {
          "internalType": "bytes32",
          "name": "_commitment",
          "type": "bytes32"
        },
        {
          "internalType": "uint256",
          "name": "expiration",
          "type": "uint256"
        }
      ],
      "name": "createGame",
      "outputs": [],
      "stateMutability": "payable",
      "type": "function"
    },
    {
      "inputs": [],
      "name": "gameCounter",
      "outputs": [
        {
          "internalType": "uint256",
          "name": "",
          "type": "uint256"
        }
      ],
      "stateMutability": "view",
      "type": "function"
    },
    {
      "inputs": [
        {
          "internalType": "uint256",
          "name": "",
          "type": "uint256"
        }
      ],
      "name": "games",
      "outputs": [
        {
          "components": [
            {
              "internalType": "address payable",
              "name": "addr",
              "type": "address"
            },
            {
              "internalType": "uint256",
              "name": "stake",
              "type": "uint256"
            },
            {
              "internalType": "bytes32",
              "name": "commitment",
              "type": "bytes32"
            },
            {
              "internalType": "enum RockPaperScissorsV2.Choice",
              "name": "choice",
              "type": "uint8"
            }
          ],
          "internalType": "struct RockPaperScissorsV2.Player",
          "name": "player1",
          "type": "tuple"
        },
        {
          "components": [
            {
              "internalType": "address payable",
              "name": "addr",
              "type": "address"
            },
            {
              "internalType": "uint256",
              "name": "stake",
              "type": "uint256"
            },
            {
              "internalType": "bytes32",
              "name": "commitment",
              "type": "bytes32"
            },
            {
              "internalType": "enum RockPaperScissorsV2.Choice",
              "name": "choice",
              "type": "uint8"
            }
          ],
          "internalType": "struct RockPaperScissorsV2.Player",
          "name": "player2",
          "type": "tuple"
        },
        {
          "internalType": "enum RockPaperScissorsV2.GameState",
          "name": "state",
          "type": "uint8"
        },
        {
          "internalType": "uint256",
          "name": "expiration",
          "type": "uint256"
        }
      ],
      "stateMutability": "view",
      "type": "function"
    },
    {
      "inputs": [
        {
          "internalType": "address",
          "name": "_admin",
          "type": "address"
        }
      ],
      "name": "initialize",
      "outputs": [],
      "stateMutability": "nonpayable",
      "type": "function"
    },
    {
      "inputs": [
        {
          "internalType": "uint256",
          "name": "gameId",
          "type": "uint256"
        },
        {
          "internalType": "bytes32",
          "name": "_commitment",
          "type": "bytes32"
        }
      ],
      "name": "joinGame",
      "outputs": [],
      "stateMutability": "payable",
      "type": "function"
    },
    {
      "inputs": [
        {
          "internalType": "uint256",
          "name": "gameId",
          "type": "uint256"
        }
      ],
      "name": "refundBet",
      "outputs": [],
      "stateMutability": "nonpayable",
      "type": "function"
    },
    {
      "inputs": [
        {
          "internalType": "uint256",
          "name": "gameId",
          "type": "uint256"
        },
        {
          "internalType": "enum RockPaperScissorsV2.Choice",
          "name": "_choice",
          "type": "uint8"
        },
        {
          "internalType": "string",
          "name": "_secret",
          "type": "string"
        }
      ],
      "name": "revealChoice",
      "outputs": [],
      "stateMutability": "nonpayable",
      "type": "function"
    }
  ],
  "bytecode": "0x608060405234801561001057600080fd5b50611540806100206000396000f3fe60806040526004361061007b5760003560e01c8063c0b9c53c1161004e578063c0b9c53c14610112578063c4d66de814610125578063d07e55b014610145578063e1fdb4b41461016557600080fd5b8063117a5b90146100805780632e0be39a146100b957806369958ab9146100dd578063ac952671146100ff575b600080fd5b34801561008c57600080fd5b506100a061009b366004611247565b610185565b6040516100b094939291906112b7565b60405180910390f35b3480156100c557600080fd5b506100cf60015481565b6040519081526020016100b0565b3480156100e957600080fd5b506100fd6100f8366004611247565b610276565b005b6100fd61010d3660046112f7565b610421565b6100fd6101203660046112f7565b6106c7565b34801561013157600080fd5b506100fd610140366004611319565b61095c565b34801561015157600080fd5b506100fd61016036600461135f565b610a7e565b34801561017157600080fd5b506100fd610180366004611247565b610d58565b60006020818152918152604090819020815160808101835281546001600160a01b031681526001820154938101939093526002810154918301919091526003808201549192918391606084019160ff16908111156101e5576101e5611260565b60038111156101f6576101f6611260565b905250604080516080810182526004840180546001600160a01b03168252600585015460208301526006850154928201929092526007840154929392909190606083019060ff16600381111561024e5761024e611260565b600381111561025f5761025f611260565b9052506008820154600990920154909160ff169084565b60008181526020819052604090205481906001600160a01b03163314806102b657506000818152602081905260409020600401546001600160a01b031633145b6102db5760405162461bcd60e51b81526004016102d290611430565b60405180910390fd5b6102e3610fc7565b60008281526020819052604090206001600882015460ff16600581111561030c5761030c611260565b146103595760405162461bcd60e51b815260206004820152601c60248201527f47616d65206e6f7420617661696c61626c6520746f2063616e63656c0000000060448201526064016102d2565b805460018201546040516001600160a01b039092169181156108fc0291906000818181858888f19350505050158015610396573d6000803e3d6000fd5b5050600082815260208190526040812080546001600160a01b03199081168255600182018390556002820183905560038201805460ff1990811690915560048301805490921690915560058201839055600682018390556007820180548216905560088201805490911690556009015561041d60016000805160206114eb83398151915255565b5050565b60008281526020819052604090206001600882015460ff16600581111561044a5761044a611260565b146104975760405162461bcd60e51b815260206004820152601a60248201527f47616d65206e6f7420617661696c61626c6520746f206a6f696e00000000000060448201526064016102d2565b600181015434146104dd5760405162461bcd60e51b815260206004820152601060248201526f0a6e8c2d6ca40daeae6e840dac2e8c6d60831b60448201526064016102d2565b80600901544211156105235760405162461bcd60e51b815260206004820152600f60248201526e11d85b59481a5cc8195e1c1a5c9959608a1b60448201526064016102d2565b80546001600160a01b031633036105865760405162461bcd60e51b815260206004820152602160248201527f47616d652073686f756c64206861766520646966666572656e7420706c6179656044820152603960f91b60648201526084016102d2565b600281015482036105ea5760405162461bcd60e51b815260206004820152602860248201527f537573706963696f7573206f6620636f70792c20747279206f7468657220636f6044820152671b5b5a5d1b595b9d60c21b60648201526084016102d2565b6040805160808101825233808252346020830181905292820185905260006060909201919091526004830180546001600160a01b031916909117905560058201556006810182905560078101805460ff199081169091556008820180549091166002179055600981015461066042610e1061146c565b11156106785761067242610e1061146c565b60098201555b60098101546040805185815233602082015242818301526060810192909252517f1278f58318e3a77f7377bd71ccb2668729a02713eca7f3bc203084375830e0099181900360800190a1505050565b600034116107175760405162461bcd60e51b815260206004820152601c60248201527f5374616b65206d7573742062652067726561746572207468616e20300000000060448201526064016102d2565b4281116107815760405162461bcd60e51b815260206004820152603260248201527f45787069726174696f6e206d7573742062652067726561746572207468616e2060448201527163757272656e7420626c6f636b2074696d6560701b60648201526084016102d2565b6001805490600061079183611485565b909155505060408051610100810182523360808083019182523460a084015260c08301869052600060e08401819052918352835190810184528181526020818101839052938101829052919283019190606082015281526020016001815260209081018390526001805460009081528083526040908190208451805182546001600160a01b0319166001600160a01b0390911617825593840151818401559083015160028201556060830151600380830180549395948694919260ff1990921691849081111561086357610863611260565b0217905550505060208281015180516004840180546001600160a01b0319166001600160a01b0390921691909117815591810151600584015560408101516006840155606081015160078401805492939260ff191660018360038111156108cc576108cc611260565b02179055505050604082015160088201805460ff191660018360058111156108f6576108f6611260565b02179055506060918201516009909101556001546040805191825233602083015234908201524291810191909152608081018290527f93a0ae9223906b776329cf5728500e59cb8e02af3d8a5c760407ff2038da79c09060a00160405180910390a15050565b7ff0c57e16840df040f15088dc2f81fe391c3923bec73e23a9662efc9c229c6a008054600160401b810460ff16159067ffffffffffffffff166000811580156109a25750825b905060008267ffffffffffffffff1660011480156109bf5750303b155b9050811580156109cd575080155b156109eb5760405163f92ee8a960e01b815260040160405180910390fd5b845467ffffffffffffffff191660011785558315610a1557845460ff60401b1916600160401b1785555b600280546001600160a01b0319166001600160a01b0388161790558315610a7657845460ff60401b19168555604051600181527fc7f505b2f371ae2175ee4913f4499e1f2633a7b5936321eed1cdaeb6115181d29060200160405180910390a15b505050505050565b60008381526020819052604090205483906001600160a01b0316331480610abe57506000818152602081905260409020600401546001600160a01b031633145b610ada5760405162461bcd60e51b81526004016102d290611430565b610ae2610fc7565b60008481526020819052604090206002600882015460ff166005811115610b0b57610b0b611260565b1480610b2f57506003600882015460ff166005811115610b2d57610b2d611260565b145b610b775760405162461bcd60e51b815260206004820152601960248201527847616d65206e6f7420696e20636f727265637420737461746560381b60448201526064016102d2565b60008484604051602001610b8c92919061149e565b60408051601f19818403018152919052805160209091012082549091506001600160a01b03163303610c2a5760028201548114610bfc5760405162461bcd60e51b815260206004820152600e60248201526d125b9d985b1a59081c995d99585b60921b60448201526064016102d2565b60038083018054879260ff19909116906001908490811115610c2057610c20611260565b0217905550610c95565b60068201548114610c6e5760405162461bcd60e51b815260206004820152600e60248201526d125b9d985b1a59081c995d99585b60921b60448201526064016102d2565b60078201805486919060ff19166001836003811115610c8f57610c8f611260565b02179055505b600060038084015460ff1690811115610cb057610cb0611260565b14158015610cd757506000600783015460ff166003811115610cd457610cd4611260565b14155b15610cea57610ce586610fff565b610d39565b60088201805460ff1916600317905560408051878152336020820152428183015290517f66e6fb9a279caa25a794037056cf093dfdbd1819cb8c3924a83f3b0bc6e66fe8916060908290030190a15b5050610d5260016000805160206114eb83398151915255565b50505050565b60008181526020819052604090205481906001600160a01b0316331480610d9857506000818152602081905260409020600401546001600160a01b031633145b610db45760405162461bcd60e51b81526004016102d290611430565b610dbc610fc7565b60008281526020819052604090206003600882015460ff166005811115610de557610de5611260565b14610e2e5760405162461bcd60e51b815260206004820152601960248201527847616d65206e6f7420696e20636f727265637420737461746560381b60448201526064016102d2565b80600901544211610e775760405162461bcd60e51b815260206004820152601360248201527211d85b59481a5cc81b9bdd08195e1c1a5c9959606a1b60448201526064016102d2565b600060038083015460ff1690811115610e9257610e92611260565b14158015610eb957506000600782015460ff166003811115610eb657610eb6611260565b14155b15610ecc57610ec783610fff565b610faf565b600060038083015460ff1690811115610ee757610ee7611260565b14610f4e578054600582015460018301546001600160a01b03909216916108fc91610f119161146c565b6040518115909202916000818181858888f19350505050158015610f39573d6000803e3d6000fd5b5060088101805460ff19166004179055610faf565b6004810154600582015460018301546001600160a01b03909216916108fc91610f769161146c565b6040518115909202916000818181858888f19350505050158015610f9e573d6000803e3d6000fd5b5060088101805460ff191660041790555b5061041d60016000805160206114eb83398151915255565b6000805160206114eb833981519152805460011901610ff957604051633ee5aeb560e01b815260040160405180910390fd5b60029055565b6000818152602081905260409020600781015460ff16600381111561102657611026611260565b60038083015460ff169081111561103f5761103f611260565b036110c857805460018201546040516001600160a01b039092169181156108fc0291906000818181858888f19350505050158015611081573d6000803e3d6000fd5b50600481015460058201546040516001600160a01b039092169181156108fc0291906000818181858888f193505050501580156110c2573d6000803e3d6000fd5b50611236565b600160038083015460ff16908111156110e3576110e3611260565b14801561110857506003600782015460ff16600381111561110657611106611260565b145b8061114e5750600260038083015460ff169081111561112957611129611260565b14801561114e57506001600782015460ff16600381111561114c5761114c611260565b145b80611192575060038181015460ff168181111561116d5761116d611260565b14801561119257506002600782015460ff16600381111561119057611190611260565b145b156111e4578054600582015460018301546001600160a01b03909216916108fc916111bc9161146c565b6040518115909202916000818181858888f193505050501580156110c2573d6000803e3d6000fd5b6004810154600582015460018301546001600160a01b03909216916108fc9161120c9161146c565b6040518115909202916000818181858888f19350505050158015611234573d6000803e3d6000fd5b505b600801805460ff1916600517905550565b60006020828403121561125957600080fd5b5035919050565b634e487b7160e01b600052602160045260246000fd5b80516001600160a01b0316825260208082015190830152604080820151908301526060810151600481106112ac576112ac611260565b806060840152505050565b61014081016112c68287611276565b6112d36080830186611276565b600684106112e3576112e3611260565b610100820193909352610120015292915050565b6000806040838503121561130a57600080fd5b50508035926020909101359150565b60006020828403121561132b57600080fd5b81356001600160a01b038116811461134257600080fd5b9392505050565b634e487b7160e01b600052604160045260246000fd5b60008060006060848603121561137457600080fd5b8335925060208401356004811061138a57600080fd5b9150604084013567ffffffffffffffff808211156113a757600080fd5b818601915086601f8301126113bb57600080fd5b8135818111156113cd576113cd611349565b604051601f8201601f19908116603f011681019083821181831017156113f5576113f5611349565b8160405282815289602084870101111561140e57600080fd5b8260208601602083013760006020848301015280955050505050509250925092565b6020808252600c908201526b2737ba103090383630bcb2b960a11b604082015260600190565b634e487b7160e01b600052601160045260246000fd5b8082018082111561147f5761147f611456565b92915050565b60006001820161149757611497611456565b5060010190565b6000600484106114b0576114b0611260565b8360f81b8252825160005b818110156114d857602081860181015160018684010152016114bb565b5060009201600101918252509291505056fe9b779b17422d0df92223018b32b4d1fa46e071723d6817e2486d003becc55f00a26469706673582212208df65556cdfed1156812d71b063dc732e347b5899838dadb9be3715bcc1cb2df64736f6c63430008140033",
  "linkReferences": {},
  "deployedLinkReferences": {}
}